:1000000046C069C15FC05EC05DC05CC05BC05AC015
:1000100059C058C057C056C055C054C053C052C034
:1000200051C050C04FC051C75BC765C76FC778C7C5
:1000300082C7F9C7090212000101008032090400D9
:1000400000000300000012011001FF000008C016AC
:10005000DC0500010102000112034E0061006D0089
:1000600075007200470065006E00200341006E00BD
:1000700074006F006E007900400065006D00610043
:1000800069006C002E00730075000403090411243C
:100090001FBECFE5D4E0DEBFCDBF11E0A0E6B0E0EB
:1000A000EEEEF3E102C005900D92A038B107D9F74A
:1000B00021E0A0E8B1E001C01D92AB3BB207E1F73F
:1000C0007FD693C99DCFCF93DF93809199018350C1
:1000D00087FD84C090919601209195012D3209F001
:1000E0007BC0883009F078C0CCE0D0E0C91BD109D2
:1000F000C356DE4F83EC809389018AE580936100CB
:10010000109280018881807619F0CE013DD65BC0C7
:100110008A81109292019981911106C010929301E7
:1001200022E931E082E04BC0953019F480939A01C6
:1001300038C0963081F59B81913019F486E490E0C7
:100140001FC0923019F484E390E01AC09330F1F4A8
:10015000811108C08AE890E09093980180939701FC
:1001600084E015C0813041F48AE690E090939801D4
:100170008093970180E20BC0823041F488E590E0E3
:10018000909398018093970182E101C080E090E410
:100190009093800118C0983079F0993031F48093B1
:1001A0009C0122E931E080E00AC081E09A3009F048
:1001B00080E022E931E003C02CE931E081E03093B6
:1001C0009801209397019F81911104C09E819817F7
:1001D00008F4892F8093600010929901809161004A
:1001E00084FF4CC0809160008F3F09F447C0C82F46
:1001F000893008F0C8E08C1B8093600080918901F1
:1002000098E8892780938901CC2361F18091970137
:10021000909198012091800126FF12C0AAE8B1E0D8
:1002200029E831E020953095280F391F4C2F4A0FCF
:10023000F901EA0FFB1FE491ED934A13F9CF09C0CE
:10024000EAE8F1E0DC012C2F2E0F3D9131932E13C3
:10025000FCCF01962FEF2C0F820F911D90939801E8
:10026000809397016C2F8AE891E031D0CC5FCC303D
:1002700019F08FEF80936000C093610084E190B328
:100280009C7031F48150D9F710929A011092940128
:10029000DF91CF91089585B7826085BF8BB7806469
:1002A0008BBF0895A82FB92F80E090E041E050EA7D
:1002B000609530E009C02D9182279795879510F0C1
:1002C00084279527305EC8F36F5FA8F30895EADFAF
:1002D0008D939D930895CF93CFB7CF93DF93C3951D
:1002E000839BE9F7839B0BC0839B09C0839B07C05B
:1002F000839B05C0839B03C0839B01C089C06F9310
:10030000C0919601DD27C356DE4F2F9365E5839B91
:1003100003C02F916F91E6CF0F931F934F9320E06F
:1003200040E15F9300B30C7003FB27F93F9350E06B
:100330003BE039C01C7040642F77012F5F5F1EC007
:10034000406810B31C702F7752501FC0406400B338
:100350002F770C70D1F15F5F00C023C0406210B3F3
:100360002F771C7091F15F5F00C025C00C701027C3
:10037000515012F45D5F0000115027952C3F10B3CF
:10038000C8F61C700127015027952C3FC8F642275C
:10039000499300B30C7010274F73115027952C3FD1
:1003A000A8F64695469510B31C7079F001270150C8
:1003B00027952C3F98F66B5A60F3315000B3B0F696
:1003C00000C010E41ABF002717C03B503195C31B73
:1003D000D04010E41ABF0881033CF9F00B34E9F077
:1003E000209194011981110F1213EDCF093651F1AB
:1003F0000D3211F0013E39F700939B013F915F915F
:100400004F911F910F912F916F91CAB7C6FD67CF82
:10041000DF91CF91CFBFCF91189520919B012223DF
:1004200069F310919901112339F534303AF1309381
:10043000990120939501109196013BE0311B309377
:1004400096011CC0009199010130B4F40AE5309185
:10045000610034FD14C000936100C9E8D1E013C00D
:10046000052710E000C0000002BB1AC0052710E0FD
:10047000221F1DC010E021C04AE502C032ED432F0B
:10048000C4E1D0E032E011B31C60939A02B311BB17
:100490005CE020E865E320FF052702BB2795179560
:1004A0001C3FF0F66695B8F7B1F720FF052702BBB1
:1004B000279517951C3FD0F62795179517FF052709
:1004C00000001C3F02BBB0F629913A9519F7037F53
:1004D00010919A01110FC651D04002BB11F0109338
:1004E000940110E41ABF086011B3137F402F437FBB
:1004F00054E05A95F1F702BB11BB42BB7FCFAD9AD6
:10050000089586E090E03CC7BC0186E090E03DC7DE
:1005100084E090E035C7BC0184E090E036C782E01B
:1005200090E02EC7BC0182E090E02FC780E090E011
:1005300027C7BC0180E090E028C70F931F93CF939B
:10054000DF93EB0101E010E02097F9F0D7FF13C033
:10055000D195C195D109BC01882777FD8095982F49
:1005600017D69B01AC0160E070E080E89FE375D591
:10057000DCD5CB01E9CF21979801289F8001299FE5
:10058000100D389F100D1124DFCFC801DF91CF91DE
:100590001F910F910895FC019F01281B390B419178
:1005A0004111FACFC90108951816190644F4EFE96C
:1005B000FFE03197F1F700C000000197F5CF0895F3
:1005C00095ED9A95F1F70000613011F4C19A01C0E0
:1005D000C19887FF02C0979A01C0979886FF02C012
:1005E000969A01C0969885FF02C0959A01C0959889
:1005F00084FF02C0949A01C0949895E09A95F1F70F
:100600000000C09A95E09A95F1F70000C09895E037
:100610009A95F1F7000083FF02C0979A01C097985E
:1006200082FF02C0969A01C0969881FF02C0959AF7
:1006300001C0959880FF02C0949A01C0949885E00B
:100640008A95F1F70000C09A95E09A95F1F70000BD
:10065000C09885E08A95F1F70000089560E0B0CF7A
:1006600061E0AECFC0982FEF89EF90E0215080403D
:100670009040E1F700C00000C19880E2EFDF8AE21D
:10068000EDDF8CE0EBDF81E0E9DF8FE697E10197BA
:10069000F1F700C0000086E0E1CF80E8DFDF8FE601
:1006A00097E10197F1F700C000000895F6DF80ECB4
:1006B000D5DF8FE697E10197F1F700C000000895BC
:1006C00081E0CCDF8FE697E10197F1F700C00000F1
:1006D0000895CF93DF93EC018991882311F0C0DF57
:1006E000FBCFDF91CF91089583E0B8DF8FE99FE0E2
:1006F0000197F1F700C000000895CF93DF93C0E1A8
:10070000D0E080E2ADDF21972097D9F7DF91CF913C
:1007100008950F931F93CF93DF938C01C0E0D0E037
:10072000C017D10754F484E199DF8FE99FE0019766
:10073000F1F700C000002196F3CFDF91CF911F9118
:100740000F910895CF92DF92EF92FF920F931F9334
:10075000CF93DF93EC018B016A01B2DF9EDF8091C2
:100760008601811118C088E291E0B3DF780194E03E
:10077000EE0CFF1C9A95E1F7CE018E0D9F1DA9DFAF
:1007800095DF8AE291E0A5DF0F5F1F4F0C151D0575
:100790000CF5C70113C08AE291E09BDF0150104FB6
:1007A00084E0000F111F8A95E1F7CE01800F911FA1
:1007B00090DF7CDF88E291E08CDFC80140968C0FEF
:1007C0009D1FDF91CF911F910F91FF90EF90DF90D0
:1007D000CF907FCFDF91CF911F910F91FF90EF903E
:1007E000DF90CF90089547E050E0ACCF26B330E0E3
:1007F000082E02C0359527950A94E2F720FD03C024
:1008000080E090E008952FEF39EF90E021503040E4
:100810009040E1F700C0000026B330E0082E02C08F
:10082000359527950A94E2F720FFEACF21E030E0E2
:1008300002C0220F331F8A95E2F786B390E082232D
:100840009323892BD1F781E090E0089523B330E022
:10085000082E02C0359527950A94E2F720FD03C0C3
:1008600080E090E008952FEF39EF90E02150304084
:100870009040E1F700C0000023B330E0082E02C032
:10088000359527950A94E2F720FFEACF21E030E082
:1008900002C0220F331F8A95E2F783B390E08223D0
:1008A0009323892BD1F781E090E0089582E090E0D6
:1008B0009DCF80E090E0CACF83E090E0C7CF82E098
:1008C00090E0C4CF81E090E0C1CFAF92BF92CF92D1
:1008D000DF92EF92FF920F931F93CF93DF937C01F0
:1008E0008B01EEDEDADE00DFA09086011092860139
:1008F000C0E0D0E0BB24B394680181E0C81AD108FD
:10090000BB2021F0A801BE01C7011CDFCFDF892B6E
:1009100039F01C161D0624F42197BB24B39401C0A2
:10092000B12CCADF892B31F0CC15DD051CF42196E2
:10093000BB24B394C7DF892B19F3A0928601CE01A3
:10094000DF91CF911F910F91FF90EF90DF90CF90AB
:10095000BF90AF900895EF92FF921F93CF93DF93D4
:1009600000D0CDB7DEB789839A83AADE96DE89816F
:100970009A81AFDE9BDE88E291E0ABDE8CE291E013
:10098000A8DE11E09CDF7C0194DF8E299F29892B52
:10099000D1F0113061F48ADE8AE291E09ADE86E0DD
:1009A00090E0B7DE88E291E094DE12E00CC07EDEDB
:1009B00087E090E0AEDE8AE291E08BDE77DE88E2CF
:1009C00091E087DE11E07EDF892BE1F281E090E0AB
:1009D000113011F080E090E00F900F90DF91CF91F7
:1009E0001F91FF90EF9008952F923F925F926F9228
:1009F0007F928F929F92AF92BF92CF92DF92EF92AF
:100A0000FF920F931F93CF93DF93CDB7DEB72A9753
:100A10000FB6F894DEBF0FBECDBF582E692E50DE44
:100A20003CDE4AE08E010F5F1F4FB801852D962DE9
:100A300084D4C8014EDEF80101900020E9F7319717
:100A40007E2E701AE52CF62C912C812C2FDE911025
:100A500011C0A12CB12CC82CD12CAC14BD043CF479
:100A60008AE291E036DE8FEFA81AB80AF6CF8CE35F
:100A700091E00DC091E0991204C00FDE8BE090E090
:100A800003C014DE87E090E044DE88E291E021DEDE
:100A900010DF892B29F191100BC0882021F006DE90
:100AA0002CDE8A941DC002DE28DE32E0932E18C0B0
:100AB000E1E09E120CC0F1DD8BE090E02ADE8AE2DC
:100AC00091E007DE88248A94870C912C09C0EEDD22
:100AD00087E090E01EDE8AE291E0FBDD99249394AA
:100AE000EEDE892B39F191100FC0282D30E0872DD3
:100AF00090E001972817390714F483941BC0D6DDC2
:100B0000FCDD9924939416C0F1E09F120AC0C5DD64
:100B10008BE090E0FEDD8AE291E0DBDD22E0922EC8
:100B200009C0C4DD87E090E0F4DD8AE291E0D1DD28
:100B3000912C812CBBDE892B61F191102AC0672D8D
:100B400070E068197109615071098AE090E0F5DC84
:100B50006701C80ED91E81E1C81687E2D806CCF419
:100B60009CDDCBDD9ADD4AE0B801C601E6D3C801C1
:100B7000B0DDF80101900020E9F7CF0101975C0199
:100B8000A01AB10A7A1418F491DDB7DD83947601C6
:100B90007A2C92DE892B91F1911030C0A82CB12CC7
:100BA000672D70E06A197B09615071098AE090E055
:100BB000C4DC6701C81AD90AD7FC20C06EDD9DDDF0
:100BC0006CDD4AE0B801C601B8D3C80182DDF80186
:100BD00001900020E9F7CF0101971C01201A310A8A
:100BE000271450F463DD89DDC1019927A816B906E1
:100BF0001CF088248A94820C7601722C63DE892B87
:100C000031F092E0991691F05E2C6F2C0FC045DD0B
:100C10008CE090E07EDD8EE391E05BDD47DD88E0F7
:100C200090E077DD83E391E054DD10CF852D962DA4
:100C30002A960FB6F894DEBF0FBECDBFDF91CF91DD
:100C40001F910F91FF90EF90DF90CF90BF90AF90EA
:100C50009F908F907F906F905F903F902F9008951E
:100C60008230910521F461114ACCAD98089592B378
:100C700021E030E0082E01C0220F0A94EAF7662333
:100C800019F0922B92BB08952095292322BB089539
:100C9000CF9370918101761708F4672FC09182017C
:100CA000C11115C0B19B04C021E02093830102C093
:100CB00010928301B29B04C021E02093840102C002
:100CC00010928401B39B0BC021E020938501FC01AD
:100CD00020E030E04C2F50E04D575E4F03C01092A3
:100CE0008501F5CF261740F4DA01A20FB31F8C91CE
:100CF00081932F5F3F4FF6CFC60FC0938201761BC3
:100D000070938101862FCF910895409181014423F2
:100D1000C9F1461708F4642F50918201FC0180E06C
:100D200090E0252F30E02D573E4F861738F4719113
:100D3000D901A80FB91F7C930196F7CF560F509396
:100D40008201461B40938101411115C080918301AE
:100D5000882311F0909A01C0909880918401882393
:100D600011F0919A01C0919880918501882311F02A
:100D7000C6DB01C0AD9881E090918101992319F003
:100D800080E0089581E00895FC01208120762032E2
:100D900059F48181877F813039F483E08093810128
:100DA000109282018FEF089580E0089512BA8FEFBC
:100DB00081BB18BA83E087BB15BA80E284BB089573
:100DC000CF93DF93CDB7DEB7A8970FB6F894DEBF09
:100DD0000FBECDBFEBDF95DB5C019093BA01809332
:100DE000B90196DB6C019093B8018093B70197DB52
:100DF0007C019093B4018093B30198DB9093B6018A
:100E00008093B501AB20A09431F484E690E09093F8
:100E1000BA018093B901CD20C09431F484E690E00A
:100E20009093B8018093B701EF20E09431F484E609
:100E300090E09093B4018093B30114DC41DC2DDC8D
:100E40001092870101E011E0002331F060918701E9
:100E500070E088EB90E0C7DC29DD892B99F0809168
:100E6000880181110FC080918701882359F09091EA
:100E70008601913011F41092860181508093870190
:100E800001E001C000E018DD892B91F0809188011C
:100E900081110EC080918701863050F490918601B7
:100EA000911102C0109386018F5F8093870101E04A
:100EB00009DD892B49F28091870190E08730910507
:100EC00028F6FC01ED5EFF4F09948091B9019091E5
:100ED000BA018ADD9093BA018093B90115DBB6CFD0
:100EE0008091B7019091B8017FDD9093B801809314
:100EF000B70111DBABCF8091B3019091B40174DDE8
:100F00009093B4018093B3010DDBA0CFD9DBC5DB97
:100F100083E491E0DEDBBFD98B987894D4D8FECF00
:100F200064E070E082E690E0D0DC9093B6018093BC
:100F3000B501FFDA8BCF83E591E00DDD019709F074
:100F400085CFBEDBAADB8091B3019091B40197FD00
:100F50000F96BC0144E0759567954A95E1F788279F
:100F600077FD8095982F14D19FD1DFD03B01C12C04
:100F7000D12CA12CB12CE12CF12C8091B3019091BA
:100F8000B401C816D9060CF061CF8090B9019090D9
:100F9000BA018091B5019091B601009711F4AFDAD2
:100FA0000AC08130910511F4919A05C0029711F0A1
:100FB000A6DA919A909AC401F7DA8091B5019091DE
:100FC000B601009711F4AD980AC08130910511F473
:100FD000919805C0029711F0AD98919890988091E2
:100FE000B7019091B801E0DA8FEFE81AF80A6E14B1
:100FF0007F04ACF452DBC5018CDB8EE591E069DB4C
:101000008FEFA81AB80A52DB4AE0BE016F5F7F4F2C
:10101000C60193D1CE0101965CDBE12CF12C8FEF60
:10102000C81AD80AAACF4CDB38DB80E691E051DB46
:101030003DDB80E791E04DDB3CDC7C0137DCE82ADE
:10104000F92A3ADCE82AF92A3ADCE82AF92A3ADCD1
:101050008E299F29892B81F3F9CE0CD0EBC0E3D0E8
:1010600040F0DAD030F021F45F3F19F0CCC05111DC
:1010700015C1CFC0F0D098F39923C9F35523B1F32C
:10108000951B550BBB27AA2762177307840738F0F7
:101090009F5F5F4F220F331F441FAA1FA9F333D056
:1010A0000E2E3AF0E0E830D091505040E695001C0A
:1010B000CAF729D0FE2F27D0660F771F881FBB1FC6
:1010C000261737074807AB07B0E809F0BB0B802DA0
:1010D000BF01FF2793585F4F2AF09E3F510568F0EC
:1010E00092C0DCC05F3FECF3983EDCF386957795C9
:1010F0006795B795F7959F5FC9F7880F911D9695EE
:10110000879597F90895E1E0660F771F881FBB1F49
:10111000621773078407BA0720F0621B730B840BF6
:10112000BA0BEE1F88F7E095089504D06894B111CA
:10113000B5C0089598D088F09F5790F0B92F99279F
:10114000B751A0F0D1F0660F771F881F991F1AF0D2
:10115000BA95C9F712C0B13081F09FD0B1E00895BF
:101160009CC0672F782F8827B85F39F0B93FCCF340
:10117000869577956795B395D9F73EF490958095C8
:10118000709561957F4F8F4F9F4F0895E89409C0E8
:1011900097FB3EF490958095709561957F4F8F4FAA
:1011A0009F4F9923A9F0F92F96E9BB279395F695C0
:1011B000879577956795B795F111F8CFFAF4BB0F3E
:1011C00011F460FF1BC06F5F7F4F8F4F9F4F16C0A2
:1011D000882311F096E911C0772321F09EE8872F2C
:1011E000762F05C0662371F096E8862F70E060E0E8
:1011F0002AF09A95660F771F881FDAF7880F969561
:10120000879597F9089597F99F6780E870E060E007
:1012100008959FEF80EC089500240A94161617068F
:1012200018060906089500240A94121613061406D7
:1012300005060895092E0394000C11F4882352F03A
:10124000BB0F40F4BF2B11F460FF04C06F5F7F4FF2
:101250008F4F9F4F089557FD9058440F551F59F0D9
:101260005F3F71F04795880F97FB991F61F09F3F93
:1012700079F087950895121613061406551FF2CFBC
:101280004695F1DF08C0161617061806991FF1CF0C
:1012900086957105610508940895E894BB27662733
:1012A0007727CB0197F90895DEDFE0F09E37D8F07D
:1012B0009639B8F49E3848F4672F782F8827985FBE
:1012C000F9CF86957795679593959539D0F3B62F95
:1012D000B1706B0F711D811D20F48795779567950F
:1012E000939502C01CC0DACF882371F4772321F0D4
:1012F0009850872B762F07C0662311F499270DC0CD
:101300009051862B70E060E02AF09A95660F771F67
:10131000881FDAF7880F9695879597F908959F3F6C
:1013200031F0915020F4879577956795B795880FA0
:10133000911D9695879597F90895BB274A3031F40A
:10134000992322F4BDE2909581959F4F01C0BB2760
:10135000FB015527AA27880F991FAA1FA41710F071
:10136000A41B83955051B9F7A05DAA3308F0A95D7D
:10137000A193009779F7B111B1931192CB0108C0F5
:10138000A8E1B0E042E050E015C022D0272F21C0F4
:10139000DC01FC01672F71917723E1F7329704C0DC
:1013A0007C916D9370836291AE17BF07C8F3089567
:1013B000DC01CB01FC01E199FECF06C0FFBBEEBB17
:1013C000E09A31960DB20D9241505040B8F7089511
:1013D000262FE199FECF9FBB8EBB2DBB0FB6F89495
:0E13E000E29AE19A0FBE01960895F894FFCFAD
:1013EE00FF5A4E414D555220322E324B2D352E3650
:1013FE004B004E414D555220322E324B2D34304B38
:10140E000000D0E0E7F0FBE200000000000000006A
:10141E000000C2F1E520F0E5EBE500000000000061
:10142E0000000600FF0901A101150026FF00750846
:10143E0095030900B20201C0C8ECEFF3EBFCF1001A
:10144E000000000000000000CFE0F3E7E000000025
:10145E000000000000000000D7E8F1EBEE20E8EC01
:10146E00EFF3EBFCF1EEE200D1E2FFE7FC20F1201E
:10147E00CFCA000000000000D0E5E6E8EC00000056
:10148E000000000000000000C7E0EFF3F1EA0000EA
:10149E000000000000000000CE20F3F1F2F0EEE9B3
:1014AE00F1F2E2E500000000900020005BCEEA5D64
:1014BE002020205BCEF2ECE5EDE05D0093005BCEEC
:1014CE00EA5D004849442D555342202D2053544186
:1014DE00525400C7E0EFF3F1F2E8F2FC3F002E00A9
:1014EE0020416E746F6E2053696E697473796E004D
:1014FE005275737369612032303135206F63740019
:00000001FF
